:020000041008E2
:4000000000780408EB0208100D00000051030810510308105103081051030810000000000000000000000000000000004D0308104D030810000000004D0308104D030810DA
:400040004D0308104D0308104D0308104D0308104D0308104D0308104D0308104D0308104D0308104D0308104D0308104D0308104D0308104D0308104D0308104D03081000
:400080004D0308104D0308104D0308104D0308104D0308104D0308104D0308104D0308104D0308104D0308104D0308104D0308104D0308104D0308104D0308104D030810C0
:4000C0004D0308104D0308104D0308104D0308104D0308104D0308104D0308104D0308104D0308104D0308104D0308104D0308104D0308104D0308104D0308104D03081080
:400100004D0308104D0308104D0308104D0308104D0308104D0308104D0308104D0308104D0308104D0308104D0308104D0308104D0308104D0308104D0308104D0308103F
:400140004D0308104D0308104D0308104D0308104D0308104D0308104D0308104D0308104D0308104D0308104D0308104D0308104D0308104D0308104D0308104D030810FF
:400180004D0308104D0308104D0308104D0308104D0308104D0308104D0308104D0308104D0308104D0308104D0308104D0308104D0308104D0308104D0308104D030810BF
:4001C0004D0308104D0308104D0308104D0308104D0308104D0308104D0308104D0308104D0308104D0308104D0308104D0308104D0308104D0308104D0308104D0308107F
:400200004D0308104D0308104D0308104D0308104D0308104D0308104D0308104D0308104D0308104D0308104D0308104D0308104D0308104D0308104D0308104D0308103E
:400240004D0308104D0308104D0308104D0308104D0308104D0308104D0308104D0308104D0308104D0308104D0308104D0308104D0308104D0308104D0308104D030810FE
:400280004D0308104D0308104D03081010B5054C237833B9044B13B10448AFF300800123237010BD4C49020800000000C8460810084B10B51BB108490848AFF300800848A8
:4002C000036803B910BD074B002BFBD0BDE81040184700BF0000000050490208C846081018430208000000007047FFF7FDFF72B6104C114DAC4209DA21686268A368043B88
:40030000A2BFC858D050FAE70C34F3E70B490C4A00209142BCBF41F8040BFAE709480A490860BFF34F8F00F04FFD00F029FD00F0BBFBFEE7D4460810EC4608104C4902084C
:40034000184C02080040020808ED00E0FEE7FEE700B504207146084202D0EFF3098001E0EFF30880043001F085F9FEE7024A136801331360704700BF884B0208014B1868AF
:40038000704700BF884B0208F0B482B007EE900A062A00DD0622F5EEC07AF1EE10FA05D5F1EE677A4E1C2D230B7000E00E46002A24DAB7EE007AF4EEC77AF1EE10FA16D40A
:4003C000B2EE047AF4EEC77AF1EE10FA11D49FED377AF4EEC77AF1EE10FA0CD49FED347AF4EEC77AF1EE10FA07D5012206E0042204E0032202E0022200E0002232B12D4B08
:4004000003EB820393ED007A77EE877ABDEEE77A17EE105AB8EEC77A77EEC77A9DB9741C302333701EE0244B83FB0537EB17C3EBA7031F4603EB830358002B1A3033237018
:400440003D46013400E03446002DECD1234607E013F8010D354615F8017B1F7030702E469E42F5D3DAB12E232370013414E0B2EE047A27EE877AFCEEC77ACDED017A9DF807
:40048000043003F13002227007EE903AF8EEE77A77EE677A02460134501E002AE7D100232370084602B0F0BC704700BF0000C84200007A445C41081067666666F0B583B071
:4004C00007460E4615460D4B00931346002276210B4802F04FF8002407E0084B2A46395D074802F0B5F90134E4B2B442F5D3034A6421034802F020F903B0F0BDC84B0208F6
:40050000000067402DE9F04383B081460D4690461F461C4C1C4E009600227621204602F029F833463A464946204602F091F900BB00963B4601227621204602F093F80024AC
:400540000BE06E1C104B00933B462A4600210D4802F024F90134E4B2354608F1FF339C42EFDB094B00933B462A460121054802F015F9054A3946034802F0DEF8002003B08E
:40058000BDE8F08300006740C84B02082DE9F04383B0074689461446144D154E0096134600227621284601F0E5FF334622463946284602F04DF970B90096234601227621D6
:4005C000284602F04FF8009623464A460121284602F0E4F88046064A2146044802F0ACF848EA000003B0BDE8F08300BF00006740C84B020800F00702C0F3C2039B0043EA4F
:400600004213C0F3C0101843704700BF00F00702C0F3C2039B0043EA4213C0F381101843704700BF30B583B00025042464F3020564F3C5050020022363F30200052363F36F
:40064000C500F4238DF8043040F0C000FFF7DEFF8DF80500F5238DF806302846FFF7CAFF8DF807004FF47A7221460DEB0400FFF725FF03B030BD00BF00B583B002A9FF234C
:4006800001F8013D4FF47A72D020FFF77FFF10B99DF8070000E0FF2003B05DF804FB00BF10B582B004464FF47A73022201A98820FFF728FF002840F0B8809DF8052002A94D
:4006C00011F8043D43EA022323804FF47A7302228A20FFF717FF002840F0A8809DF8052002A911F8043D43EA022363804FF47A7302228C20FFF706FF002840F098809DF84D
:40070000052002A911F8043D43EA0223A3804FF47A7302228E20FFF7F5FE002840F088809DF8052002A911F8043D43EA0223E3804FF47A7302229020FFF7E4FE002878D12E
:400740009DF8052002A911F8043D43EA022323814FF47A7302229220FFF7D4FE002869D19DF8052002A911F8043D43EA022363814FF47A7302229420FFF7C4FE00285AD1AC
:400780009DF8052002A911F8043D43EA0223A3814FF47A7302229620FFF7B4FE00284BD19DF8052002A911F8043D43EA0223E3814FF47A7302229820FFF7A4FE00283CD1E0
:4007C0009DF8052002A911F8043D43EA022323824FF47A7302229A20FFF794FE70BB9DF8052002A911F8043D43EA022363824FF47A7302229C20FFF785FE00BB9DF80520AE
:4008000002A911F8043D43EA0223A3824FF47A7302229E20FFF776FE90B99DF805109DF8042042EA0122E2820AE009E008E007E006E005E004E003E002E001E000E0FFE7B4
:4008400002B010BD84B02DE9F04782B00AAC84E80F004FF4FA73032201A9FA20FFF752FE9DF804209DF805301B0243EA02439DF806001843BDF828305900C1EBE011BDF975
:400880002A2002FB01F1C912C3EB202303FB03F31B13BDF92C2002FB03F29213D317541843EBE175A900A20041EA947312196B41803243F10003100A40EA0360191202F09D
:4008C000A3FD9FED777A06EE900AC6EE877A109BC3ED007A4FF4FA73032201A9F720FFF711FE82469DF804209DF805301B0243EA02439DF806E043EA0E0EB4F5FA3245F17F
:40090000FF3302FB03F1A2FB026707EB4107BDF938804FEAE87906FB09F108FB0711A6FB08898944BDF93640E51702FB05F104FB0311A2FB04450D44690441EAD4316004D1
:4009400010EB080041EB0901BDF9348000244FEAC80500196941BDF93240E51706FB05F504FB0755A6FB04672F444FEA162848EA07684FEA2729BDF93040E51702FB05F534
:4009800004FB0355A2FB04232B441D0345EA1255140314EB080445EB0905003445F50045BDF82E20A4FB026702FB05777A10FB1752EA030403D10023119A13606AE04FEAE9
:4009C0002E1ECEF5801E7646F717FD0745EA5E054FEACE74201A65EB0101041841EB010524184D41AF0147EA9467A60136196F41BC0044EA9674B5002E1844EB0107BC0067
:400A000044EA9674B5004019614102F03BFDBDF93E40E517430B43EAC1434A1304FB02F603FB0566A4FB0345354403FB05F502FB0452A3FB04451544620E42EAC5126B1659
:400A4000BDF93C40E51700FB05F604FB0166A0FB04453544E60C46EA4536EF148018594136184F41300A40EA07603912BDF93A40E5172B0143EA147322018018594102F076
:400A8000C3FCDFED087A07EE100A67EE277A119BC3ED007A504602B0BDE8F04704B070470000C8420000803BF0B593B062B602F063FB3F493F4800F00FFF1F21002000F04D
:400AC00079FE3D49002000F097FE02F091FBFFF7D3FD582818D10546364C3849204600F0FBFE2A4636490BA802F098FE0BA9204600F0F2FE3348FFF7D3FD28B932492046E3
:400B000000F0EAFEFFF78EFD0024FFF737FC031BB3F57A7FF9D32D4B1A6903F520731B690090C3F38003C2F3001229490BA802F075FE204D0BA9284600F0CEFE0226254B7D
:400B4000DE6020494FF4FA73049306AB039307AB0293D1F800E04F688A68CB686C4651F8100F496803C470463946FFF76BFE324608A90798FFF708FC024617490BA802F03F
:400B80004DFE0BA9284600F0A7FE324608A90698FFF7FAFB024611490BA802F03FFE0BA9284600F099FEFFF7E9FB0446ADE700BF78410810000066406D0308108041081005
:400BC00094410810704B0208A841081000003240C041081080033240D8410810EC41081008B5012000F0B6FC08BD00BF704700BF5C4AD2F8803303F00F0303F1D00152F89B
:400C0000212002F00702032A04D0042A05D092B9554914E0554A116811E003F1C002514951F8222002F01F02112A06D0132A04D04FF4FA4103E04E4901E04FF400418BBBDB
:400C4000484BD3F8902502F00100D3F88825C2F30172D3F8883513F0405F07D0414BD3F88835C3F30173012B02D102E0012300E0002303B108B9032A46D13A48D0F88025DF
:400C8000C2F31103D0F88425C2F30C02D0F88005C0F300600130B1FBF2F202FB03F2B2FBF0F131E0012B2FD12E4BD3F8402602F00100D3F80026C2F30172D3F8003613F09F
:400CC000405F07D0274BD3F80036C3F30173012B02D102E0012300E0002303B108B9032A12D12048D0F8002602F07F02D0F80036C3F30423D0F80006C0F3044002FB01F2FB
:400D0000B2FBF3F2B2FBF0F1164BD3F88033C3F3011321FA03F215494A601648D0F89030C3F3072301330069000E0130B2FBF0F08860B2FBF3F3CB600B6103F5742202F20F
:400D40003F220D48A0FB0202C2F387420A7503F2E7330A4AA2FB03239B098B61DB03CB61704700BF0000264000127A008C42020800366E010000214083DE1B43D34D6210CA
:400D800008B50D4800F046FDFFF730FFFFF730FF00221146042000F0A5F9084800F038FA074B1B6893F8513013B1064800F0A0FA00F0E2F808BD00BF4044081068490208E5
:400DC0008C4B02080042081008B500F0AEFC074AD2F8883043F47003C2F88830BFF34F8FBFF36F8F00F0A5FC08BD00BF00ED00E01F4B98422DD00CD840282ED003D8E8B151
:400E0000102828D02FE0802829D0B0F5807F28D029E0184B984228D006D8B0F1204F0DD0154B984212D01EE0144B98420AD00133984209D0023B984215D101E00020704764
:400E40000F4870470F4870470F4870474FF4A0007047074870470D4870470D4870470D487047034870470C4870474FF4A400704706005200010000F0090000A0040000F0F3
:400E8000010052000200520003005200010050000200500005005200FF00520038B5124B1B6893F83130012B04D840F2C3110F4800F0D0FB0C4B1D682A6AB5F8B0301344BE
:400EC0002C46D5F8B420D358002B0BDB084B1868FFF78EFF6B6801229A6063689B68002BFBD138BD034838BD8C4B020844420810E84A0208020050001A4B186128B102237A
:400F00000370FF23437000234380174B1B6893F850202AB300B583B0B3F93830ADF80030002301931149684600F04EFBBDF90030002B08DB590903F01F03012202FA03F37D
:400F40000B4A42F82130084B1B6893F8513023B102220849012000F077FA03B05DF804FB704700BFE84A02088C4B02088943020800E100E04144020808B50248FFF7BCFF6C
:400F800008BD00BFFC4A020838B50B4B1B68D3F8B4301B58002B0DDA0D4604460B0C1B0423B140F2D521054800F054FBA9B26160002038BD024838BD8C4B020884420810D9
:400FC00001008A0038B50368002B01DA002300E0094B73B90D460446C2600B0C1B0423B140F2BB21054800F035FBA9B2A160002038BD014838BD00BF01008A00844208106A
:4010000038B504460D4619B99921084800F022FB074B1B68D3F8B4301B59002B03DAE3682B60002038BD034838BD00BFC44208108C4B020801008A00254B1B6893F83130EA
:4010400083423AD900293AD00B6813F01F0F38D170B50D4604461E4B1B6893F83130984204D340F2C3111B4800F0F4FA184B1B68186AB3F8B03004FB0304174E34602A68A2
:40108000D2080021686802F0C1FB00212046FFF77BFF346825B940F293310E4800F0DAFA2A4600212046FFF78DFF60B900210A4B1868FFF769FF40B970BD084870470748D4
:4010C000704706487047064870BD054870BD00BF8C4B020884420810004B020803018A0001018A0010B504461346B2B9A9B9124B1B6893F83130984204D340F2C3110F4843
:4011000000F0A8FA0C4B1B681A6AB3F8B03004FB03240B4B1C60002010BD43B149B1084A51609360111D2046FFF786FF10BD054810BD044810BD00BF8C4B020884420810DE
:40114000004B020803018A002DE9F0411B4B1B68DC68236883422CD90D464609A0EB4610012303FA00F819B900F0DFFA074600E00027124B18680368002B01DA002300E0E7
:401180000F4B83B9626852F8263018EA030F05D023EA080342F82630002400E0094C0021FFF7F2FE00E0084C25B9384600F0C1FA00E0064C2046BDE8F08100BF004B020841
:4011C00001008A00020188000301880004018A000B4B1B68DB681A6882420CD94109A0EB4110012202FA00F05B6853F82130184203D004487047044870470448704700BFEE
:40120000004B02080101880004018A0000018800024B1B680BB9014B186070470C4B02082DE9F8430446884691461D46089F2C4B1B681BB9B5212B4800F00CFA284B1B68FA
:401240002C2000FB04F01C18EEB21E50C5F3072363602D0CA560244B1B6893F831309E4204D340F2C311214800F0F4F91E4B1B68196AB3F8B02006FB02162661666893F84A
:4012800032309E4204D340F2DF11184800F0E2F9154B1B681D6A803605EB46156561A668330C1B0423B14FF4FF71104800F0D2F9330C1B0423B140F2FF110C4800F0CAF916
:4012C000B3B243EA0646AE60C4F81C90C4F820800023A36117B1B7F90030A381BDE8F8830C4B0208044308108C4B020884420810F0B58FB0044618B95221274800F0AAF938
:40130000A369072B03D95621234800F0A3F9E36A1BB95821204800F09DF9236B1BB959211D4800F097F907AD04F114060FCE0FC537682F6002AD26460FCE0FC533682B6048
:40134000164B1B68B3F93620079B1344ADF83030089B0D93A26AE16A0CAD00953B460A98FFF75EFF00210091069B0A460598FFF757FF216B284600F027F9BDF93030002B54
:4013800008DB590903F01F03012202FA03F3044A42F821300FB0F0BD044308108C4B020800E100E0F8B506460F461D4614461AB9FD211F4800F04EF91E4B1B681BB9FE21FF
:4013C0001B4800F047F91B4B1B682C2101FB063001FB07314B68012202FA03F31B04466802FA06F60269EAB18F69EFB91268002A01DA002200E0104AC2B9228813432360B2
:401400000369DC6001238B614D620469330C1B0423B140F2BB21094800F01CF9B2B2A2600020F8BD0648F8BD0648F8BD0548F8BD044308100C4B020801008A0084420810D6
:4014400004028A0007028A00F8B505460F4616460E4B1B6823B94FF4AF710D4800F0FAF80A4B1B682C2404FB0534236A23B94FF4B171074800F0EEF8E369B34204D9236A50
:4014800043F826700020F8BD0248F8BD0C4B0208044308100A028A0070B582B000230193044620B940F2D111284800F0D3F8236923B94FF4E971254800F0CCF8636923B9F3
:4014C00040F2D311214800F0C5F8236A23B94FF4EA711E4800F0BEF86369DD682A0C20D012041A601B682069194B1B68D3F8B430C358002B15DA01A9FFF782FD60B901983E
:4015000003681E0CDBB2E269934206D2226A52F8233013B1984700E0002631462069FFF733FDADB275B16369ADB21D601B68636A1BB198470023636202E0A36A03B1984707
:401540000023A36163691B6802B070BD044308108C4B020810B50446074B1B6823B940F2B111064800F076F8034B1B682C2000FB0430FFF791FF10BD0C4B02080443081017
:4015800038B50D4B9A680D4B9A420FD10D46044621B940F237110A4800F05CF804F11003064A52F8230042F8235038BD1030054B53F8200038BD00BF00ED00E0004002081C
:4015C000444308100000081048B338B504460D464368072B03D93221134800F03BF8B4F900306268002B08DB5201D2B203F1604303F5614383F8002305E003F00F0352018B
:40160000D2B20A49CA540A4B9A680A4B9A4208D12946B4F90000FFF7B3FF002038BD06487047002038BD00BF4443081014ED00E000ED00E0004002080100560008B5034BA9
:401640001B7800FB03F000F067F808BDA042020801BEFEE738B50D46044C18220146204602F000F9A5610020FFF7F2FFB8480208FEE700BF08B50268254BDA6142681A6230
:4016800082685A62C2689A620269DA6242691A6382695A63C2699A631E4A916AD963D16A1964516A5964516B9964926BDA64F1EE103A13F0900F27D0026A154B1A65426A43
:4016C0005A65826A9A65C26ADA65026B1A66426B5A66826B9A66C26BDA66026C1A67426C5A67826C9A67C26CDA67026DC3F88020426DC3F88420826DC3F88820C26DC3F851
:401700008C20026EC3F89020FFF7B2FF08BD00BFB848020800ED00E00230800803D001300238FCD100BF00BF7047EFF3108072B6704780F310887047084B1B6813F4803F77
:4017400007D17047064B53F8243003B19847013401E010B50024042CF4D910BD10E000E04C4B0208044B1A6842F002021A601A6842F001021A60704710E000E0042805D1E2
:401780000A4A136843F0040313607047084B1B681A68D3F8A030000600F04070D050034A136823F004031360704700BF10E000E08C4B020810B50C46002304E000210A4A2E
:4017C00042F823100133042BF8D9084A084BDA63FFF7D4FF24F07F44064B5C6000229A60FFF7C0FF10BD00BF4C4B0208391708100040020810E000E00346042805D8044A99
:4018000052F8200042F8231070470020704700BF4C4B0208014B1860704700BF8C4B020810B4D0F8003303F00F03072B06D900230DE0D0F84043CC54013300E0002393426C
:40184000F7D306E0D0F8404321F8134001339342F8D35DF8044B704710B51446D0F80833C3F308039A4200D31C462246FFF7D8FF204610BD10B4D0F8003203F00F03072B81
:4018800006D900230DE0CC5CC0F84042013300E000239342F7D306E031F81340C0F8404201339342F8D35DF8044B704710B51446036813F4006F01D0802200E04022D0F8B9
:4018C0000832C3F30803D31AA34200D81C462246FFF7D0FF204610BD30B4036813F4006F01D0802200E04022002408E0D0F80832C3F308039A42F9D0C0F8405201340D5DAA
:40190000002DF3D130BC704702E0C0F84012013A002AFAD1704700BF10B51446036813F4006F01D0802200E04022D0F80832C3F30803D31AA34200D81C462246FFF7E4FFBC
:40194000204610BD10B5546841F201039C4236D1D0F80833C3F30803DBB1137893B1136A43F040031362D0F8043343F48033C0F80433D0F8043323F48033C0F80433D0F8B8
:40198000043306E029B9136A43F040031362D0F84033136A43F020031362136A23F010031362036E23F4204303660023C0F8C83F0123C0F8C03FD0F8C03F202121E0D0F843
:4019C0000832C3F30801D0F80832C3F3C0330B44116BC91A5163116A11F0080F05D1D16A1944D162916ACB1A9362136A43F004031362136A23F0010313620023C0F8883F01
:401A00001021D0F84C4F40F201131C420DD0036823F00043036000238366C366036843F000430360036841F040014FF080535360536C0BB10846984710BD00BFD0F80C3F0B
:401A400013F0020F1DD00222C0F8002FD0F8002FD0F8002F12F0040F02D04FF4001001E04FF480108A6802438A604A68B2F5B81F07D00A7B12B14FF4C01201E04FF4B01213
:401A80004A6013F4807F03D08A6842F400028A6013F0010F03D08A6842F480028A6040F21112134202D04FF4C0134B60704700BF0023C0F8C83FC0F8883F836E23B140F20A
:401AC0001713C0F8083F704740F21313C0F8083F182383664FF4B8134B60704738B5D0F80C4F036E23F4807303660023C0F8C83FC0F8883FC0F8083F40F21713C0F8003F74
:401B0000D0F8003F8B6823F480338B604B7B13B18B69CB610BE08D69D0F80822C2F30802D0F80832C3F3C0331344EB1ACB6140F201131C421BD0036E9B0F032B05D114F4D1
:401B4000827F14BF0123002300E001235BB1036823F00043036000238366C366036843F00043036003684FF080534B601BE00B7893B1D0F8043343F48033C0F80433D0F813
:401B8000043323F48033C0F80433D0F804330123C0F8C03FD0F8C03F0B7B0BB10B4B01E04FF080534B604A6C72B14B7B13B14FF4802001E04FF400308B6813F0F87301D092
:401BC0004FF400231843904738BD00BF000010100346002940DB11F0C00F06D0002181664FF0805050602F4844E011F4807F36D111F0010F0ED050682B49884232D1196E6A
:401C000011F0804F0CBF012100214FF08050506026482FE011F0020F06D050682249884223D10021224825E011F0100F05D04FF080515160002108461CE050681A4988422B
:401C400016D1517B11B14FF4881101E04FF4A0115160002108460DE0012116480AE00121154807E00121114804E00021134801E00021084679B1196821F00041196000219F
:401C80009966D966196841F0004119601B684FF080535360704740F21712C3F8002FD3F8003F70470820AA00000013100620AA000420AA000320AA000720AA000520AA0075
:401CC000036853B110B504460120FFF7B7FC2368013B23601BB1002010BD002070474FF0004010BD70B505460C4691F8243013F0FF0F0ED1CB6A63B94B6C0BB1082098471C
:401D0000E36AB3FA83F35B0984F824300123C5F8883F94F8243013F0FF0F16D063783BB12B6813F4006F01D0802202E0402200E00122FF212846FFF7EFFD236B1844206319
:401D4000236A43F00803236270BDE26A012A11D963780BB1013A00E00122A16A2846FFF7A5FD236B03442363E36A1B1AE362A36A1844A062D5F80832C3F30803802B23D0AC
:401D8000E36A012B20D1FFF7D0FCA36A1B78C5F840324026C5F8806FD5F8803FFFF7C9FC236B013323630023E362A36A0133A362C5F8886F63783BB1236A43F00203236214
:401DC000636C0BB10420984770BD00BF38B54B68B3F5A81F03D14FF4C0134B6038BD4B68B3F5A01F4DD10C4605464A69012A11D94B780BB1013A00E0012221692846FFF788
:401E000055FDA3690344A36163691B1A6361236903442361D5F80832C3F30803802B14D06369012B11D1FFF780FC23691B78C5F840324023C5F8803FD5F8803FFFF779FC16
:401E4000A3690133A361002363616369CBB9237B33B14023C5F8883F4FF4A813636005E00023C5F8883F4FF4B0136360637843B1A36843F40033A360636C13B14FF480309B
:401E8000984738BD70B504460D468A6C82B3036813F4803F06D0D0F84C3F13F0400F03D0022002E0002000E00020236E13F4006F06D1D4F84C3F13F0800300D001231843B4
:401EC000C0B190470123C4F8C03FD4F8C03F024648B91023C4F8403FD4F8403F40F2D113C4F8483F07E040F2C113C4F8483F02E0002200E00022D4F8043243F48033C4F8B7
:401F00000432D4F8043223F48033C4F80432D4F804320AB9012300E00223E366002A59D1666E06F010066B6C23B10EB1012000E0022098477EB141F202036B602B6A43F0DC
:401F400001032B626B6B2B63002385F824300123C4F8883F70BD41F201036B602B6A43F010032B620123C4F8C83F2B78BBB1EB6BBBB1236E43F400532366ED6B802D05D9FB
:401F8000A5F18003802B0ED8813D0DE0013D236E43F4004323660023C4F8C83F04E0002502E0002500E03F25236813F4006F01D0802300E040239D4204D34FF4237106482D
:401FC000FFF748FBD4F8043323F0FF03EDB21D43C4F8045370BD00BFF844081038B54B68B3F5881F03D0B3F5901F1AD038BD0B69D0F840231A708B6901338B614B69013B19
:402000004B612BB10B6901330B610423836638BD0B7B13B14FF4C01301E04FF4B0134B6038BD0C4605464A690969FFF715FCA3690344A36163691B1A6361226910442061D3
:40204000012B24D82B6E23F480732B666369012B16D12B6813F4006F01D0802300E0402323B94FF423711848FFF7F4FAD5F8043323F0FF03C5F804334FF48813636038BDCB
:402080000023C5F8C83F4FF4B013636038BD402B01D89C1E00E03F242B6813F4006F01D0802300E040239C4204D34FF423710648FFF7D0FAD5F8043323F0FF02E3B21343DD
:4020C000C5F8043338BD00BFF844081038B5CB6B002B50D00B78002B3FD00C460546D0F80423D2B20132896BFFF7B6FB236C03442364E36B1B1AE363A26B1044A063802BA6
:4021000006D9A3F18002802A0FD8A3F181040DE02B6E43F400432B66E36B0BB15C1E00E000240023C5F8C83F00E03F242B6813F4006F01D0802300E040239C4204D34FF405
:4021400023711048FFF786FAD5F8043323F0FF02E3B21343C5F8043338BD0123C3668A6B0B6CD0F84003D0540B6C01330B64CB6B013BCB6338BD0223C3660023C0F8C83F4A
:4021800038BD00BFF8440810F8B50B78012B03D00C7A1CB9002702E0002700E00127002800F0A780002900F0A680002A00F0A58016460C460546013BDBB2022B03D950215C
:4021C0004F48FFF747FA637803B163791BB151214B48FFF73FFA94F90330002B03DA52214748FFF737FA237913F0010F03D053214348FFF72FFA2369102B03D95421404875
:40220000FFF728FAE368102B03D955213C48FFF721FA637913B14FF4803100E00021E27912B14FF4807300E000230B4343F400632B60A37913B94FF4006300E0002322699E
:40224000013A02F00F021A43E368013B1B01DBB21343227843EA82732B6617B140F2073301E040F20713C5F800330FB1254B00E0254B2B6763780BB17F2300E00023C5F894
:402280000433E3785B00DBB2227943EA0243C5F810331E4BC5F80032A3780BB1402300E00123C5F804320023C5F8C83EC5F8883EC5F8C83FC5F8883FC5F8083F2378022B91
:4022C00002D040F2D11300E00023C5F8483F63783370A37873704FF0805373600020B060B06130623064F0633063F0627064B064F8BD0748F8BD0648F8BD0548F8BD00BF4A
:402300003C45081003002A0013102A00070101000120AA0038B505460C4621B94FF431711948FFF797F92B6E9B0F012B17D1174B2344174A93421ED9A4F5BD13A3F5D663FF
:4023400002F5611202F56162934216D9A4F57104A4F533440F4B9C4211D80F4838BD84B1286EC0F303102B6E03F00F0318440230B4FBF0F038BD094838BD094838BD0020FD
:4023800038BD002038BD00BF3C45081020AD88FF405B730040555C0440420F00801A0600A08601002DE9F84307468846914622B940F213216248FFF74DF908F1FF34614BCA
:4023C0009C4204D94FF405715D48FFF743F93B6E9B0F012B0DD149463846FFF79BFF0546D7F8003323F40073C7F80033564B3B67A2E0544B9C421FD8544B984509D8A9F59B
:40240000BD13A3F5D663524A934218D90021012328E0504B984507D84F4B4B444F4A934213D9002101231DE04D4B4B444D4A934212D90021012315E00021012312E0002120
:4024400041F288352E460B460CE000214FF461754FF4C8660B4605E001214FF4BE754FF41B760023002B66D13F4BB3FBF9F3B6FBF3F404FB03F2964200D90134102C00D93E
:4024800010240F2C8CBF00220122B5FBF3F606FB03F39D4200D90136102E00D91026A519B9FBF5F50FE022B10F2C09D80134002206E00F2E04D801360F2C8CBF00220122BF
:4024C000A519B9FBF5F5454502D9A3191F2BEAD941B1D7F8003343F40073C7F80033234B3B6707E0D7F8003323F40073C7F80033154B3B67E31F092B04D940F28D511C48C4
:40250000FFF7A8F83B6E23F0F003013C2401E4B223433B66731F0B2B04D940F2AA511448FFF798F83B6E23F00F03013E06F00F061E433E6600E000252846BDE8F88300BF34
:402540003C4508103F420F0013102A00A0860100502D1900801A060020AD88FFA0432100807E25FFC02BAF0000CA9A3B03002A007C4508102DE9F04182B005460C4617465C
:402580009846089E11F0800F04D040F2C9613148FFF760F8304B984504D940F2CA612D48FFF758F8012F04D940F2CB612948FFF751F80023C5F8483F7368B3F1805F41D1D1
:4025C0004FF47A7303FB08F30193244B7360012F14BF00230123737340F21713C5F8003FD5F8003F0423C5F8C03FD5F8C03FD5F8043243F48033C5F80432D5F8043223F49F
:402600008033C5F80432D5F804326400E4B23C43C5F840420223AB66D5F8004F24F0F804E405E40DD5F8403F03F0C0031C4301A8FFF746FB54EA0001EED032462846FFF7E3
:40264000C7FA00E0064840F2D113C5F8483F02B0BDE8F0813C45081037894100000013100220AA002DE9F04182B005460F4614469846089E11F0800F04D040F22A712A4826
:40268000FEF7E8FF294B984504D940F22B712648FEF7E0FF012C04D940F22C712248FEF7D9FF736813F4801F39D04FF47A7303FB08F301931E4B7360012C14BF0023012326
:4026C00073736B6E13F0200F01D0092300E00123AB666B6E13F0200F05D0002009E001A8FFF7EEFA00E0002018B9AB6E13F0010FF5D170B97F00FFB23C43C5F84042D5F8C0
:40270000000F40F20714044001A8FFF7D9FA2043F5D0324601462846FFF75AFA00E0054802B0BDE8F08100BF3C45081037894100000013100220AA0070B582B005460C46B7
:402740001646134B994204D940F28D711148FEF781FF736813F4801F17D04FF47A7303FB04F401941823AB66D5F8004F24F0EE04E405E40D01A8FFF7A3FA54EA0001F3D040
:4027800032462846FFF724FA00E0034802B070BD378941003C4508100220AA002DE9F04383B0074688461C460A9D914622B940F2D9712448FEF74EFF234B9C4204D940F2D8
:4027C000DA712048FEF746FFB8F1010F04D940F2DB711C48FEF73EFF6B68B3F5881F2BD14FF47A7303FB04F40194D7F8C06F06F00406D7F8001F40F201140C4001A8FFF74B
:402800005FFA44EA00010EB90029EED046B1D7F8403389F800300523C7F8C03FD7F8C03F2A463846FFF7D4F9034630B9B8F1000F03D10422BA6600E0044B184603B0BDE82A
:40284000F08300BF3C450810378941000220AA00F0B583B005460F4614461E46134B9A4204D940F633011248FEF7F4FE7368B3F5A01F17D14FF47A7303FB04F40194C5F826
:402880004072D5F8004F24F0F804E405E40D01A8FFF716FA54EA0001F3D032462846FFF797F900E0034803B0F0BD00BF378941003C4508100220AA00F8B504460E46D0F880
:4028C0008C3E13F0010F07D04FF480534B600123C0F8803ED0F8803ED4F84C5F40F201131D420FD0336A15F4807F02D04FF4807200E08022134333620023C4F8C83F45F014
:4029000010050EE015F0100F0BD0D4F80833C3F3080333B1F36B23B10123C4F8C43FC4F8C83FD4F8CC3F13F0010F17D0236813F4803F07D00620FEF781FED4F84C7FC7F32D
:40294000801700E0002757B931462046FFF7BEFB0123C4F8C03FD4F8C03F00E0002715F0100F0BD0324639462046FEF7EBFF1023C4F8403FD4F8403FD4F84C5F15F0C00F2D
:402980000DD031462046FFF77DFA0123C4F8803ED4F8803EC023C4F8403FD4F8403FD4F88C3F13F0410F08D031462046FFF79AF90123C4F8803FD4F8803FF8BD70B50646E7
:4029C0000D46D0F8004E14F0020F0AD0836E2BB1002383668B6843F080738B604FF4C0136B6014F0010F05D029463046FFF726F824F0040414F0080F08D029463046FFF7F5
:402A0000EDFA0123C6F8C03FD6F8C03F14F0040F08D029463046FFF7D9F90123C6F8803FD6F8803F6B68B3F5C01F03D129463046FFF754F86B68B3F5B01F03D129463046DF
:402A4000FFF736F870BD00BF08B54B6813F4801F02D0FFF7B3FF08BDFFF72EFF08BD00BF2DE9F84305460C46036813F4006F02D04FF0800801E04FF04008D5F8007207F044
:402A80000F07A26A012A19D9D4F82490E262561EB9F1000F00D026B940F273512548FEF7D9FD324649462846FEF700FFA36A1B1AA362072F00D9400048446062D5F80832B5
:402AC000C3F30803984533D0A36A012B30D10023A362072F02D8636A1E7801E0636A1E88FEF723FEC5F840624FF40073C5F8803FD5F8803FFEF71DFED5F8883F23F40072AC
:402B000022F0010242F4007623F4EE6323F0030323B140F236410848FEF79CFDC5F8886F236843F002032360236B0BB101209847BDE8F883BC450810F84408102DE9F041E0
:402B400005460C46036813F4006F01D0802600E040267608A769D4F81C8017B1B8F1000F04D14FF499613148FEF774FD424639462846FEF771FE236A03442362E3691B1A00
:402B8000E36173BBA368FBB1E3689E4201D8013E00E05E1E2B6813F4006F01D0802300E040239E4204D34FF423712148FEF752FDD5F8043323F0FF03F6B21E43C5F804630C
:402BC0000123C5F8C83F02E00023C5F8C83F636823F001036360236B33B304209847BDE8F081A169D5F8002302F00F02072A00D940000844A0619E4216D95C1E2B6813F47B
:402C0000006F01D0802300E040239C4204D34FF423710748FEF71EFDD5F8043323F0FF02E3B21343C5F80433BDE8F081BC450810F8440810002800F0A48170B50546002933
:402C400000F0A18116460C460B78022B03D93F21A248FEF7FFFC637B023BDBB2062B03D940219E48FEF7F6FCA37B3BB1022B05D0032B03D041219948FEF7ECFC94F82130E1
:402C8000012B03D942219548FEF7E4FC94F82830012B03D943219148FEF7DCFC2378012B06D86368083B082B94BF0023012307E0A37F2BB16368013B062B94BF00230123CA
:402CC0001BB145218548FEF7C5FCA368053B042B03D946218148FEF7BDFC6369FF2B03D947217E48FEF7B6FCA369FF2B03D948217A48FEF7AFFCA37C6BB1237833B9A3689A
:402D0000092B05D1A37B2BB1012304E0012302E0012300E000231BB14A217048FEF79AFC636B23F4366323F00D031BB14C216B48FEF790FCE36B23F4EE6323F003031BB137
:402D40004D216648FEF786FC2378022B01D1A37F13B16268013A00E00022237F13B14FF4803100E00021A368082B02D84FF4006300E000230B4302F00F02134343F00073D0
:402D80002B60226B2B6813F4006F01D0802300E040239A4203D362215048FEF75BFCA26B2B6813F4006F01D0802300E040239A4203D363214948FEF74DFC626A2B6813F4EA
:402DC000006F01D0802300E040239A4203D364214248FEF73FFC23781B0603F040732B64637F0BB1402200E00022A37C13B14FF4806300E000231343227C12B14FF48072D1
:402E000000E000221343627C12B14FF4007200E000221A43E36A013B1B0403F470231343627B013A02F007021343A27B120102F030021343AB64237B13B14FF4807200E064
:402E40000022E37B23B92378022B03D1012302E0012300E0002313B14FF4007300E000231A43A368013B03F00F031343C5F80033227DA3691B0403F47F031343C5F8103328
:402E8000E26AD5F8003303F00F0303339A4201D3102A03D97A211148FEF7DCFBE37F23B12378012B03D0002302E0002300E0012313B14FF4807200E00022637B013B03F001
:402EC00007031A43A37B1B0103F0300313436B64237B2BB14FF4807203E000BFFC4508100022A368013B03F00F0313432278012A02D14FF4803200E000221343C5F80032A4
:402F000094F83030C5F8043394F8203013B14FF0007200E0002294F82130012B02D14FF0807300E00023134394F82820012A02D14FF4803200E00022134394F824201343B2
:402F40002B6594F83830C5F80432636B23F4926323F002031B051B0DC5F8C83FE36B23F08C035B055B0DC5F8883F76B1002070603060B060F0603062F0623063044B7363FD
:402F800070BD04487047034870BD002070BD00BFEFCDAB000160AA000B694A69934202D34869181A7047CA684869101A184470472DE9F04107460D46036813F4006F02D0C6
:402FC0004FF0800801E04FF040084FEA5808D7F80863C6F308062C6926E00134EB689C4200D100246B699C420FD12B6B0BB1082098476B699C4208D10023C7F8C83F0CB1F6
:40300000013C13E0EC68013C10E0D7F84023D7F8003303F00F03072B02D8AB681A5502E0AB6823F81420013E002ED6D12C61EC6829463846FFF7B0FF201A804519D908B1A3
:40304000441E00E000243B6813F4006F01D0802300E040239C4204D34FF423710648FEF7F9FAD7F8040320F0FF03E0B21843C7F80403BDE8F08100BFF844081038B504465D
:403080000D46D0F8003E13F0080F35D0D0F8CC3F13F448730AD04A681A434A60C0F8C03FD0F8C03F0B6B0BB110209847D4F8CC3F13F4006F09D06B6843F400636B604FF410
:4030C0000063C4F8C03FD4F8C03FD4F8CC3F13F0010F11D0EB6923B129462046FFF72EFD05E0AB681BB129462046FFF761FF0123C4F8C03FD4F8C03FD4F8003E13F0040F45
:403100002ED0D4F88C3F13F4A0630AD02A681A432A60C4F8803FD4F8803F2B6B0BB120209847D4F88C3F13F0010F08D029462046FFF796FC0123C4F8803FD4F8803FD4F851
:403140008C3F13F4007F0BD00022C4F8882F2B6823F001032B60EA622B6B0BB10220984738BD00BF08B502490248FFF787FF08BD904B02080000664008B5114B1B785BB928
:40318000104A11491148FFF755FD11491148FEF71BFA01220A4B1A700E4BB3F90030002B08DB590903F01F03012202FA03F30A4A42F82130054A136843F00043136008BDD5
:4031C000604B0208904B02083C46081000006640653108103C42081000E100E008B502490248FFF731FC08BDC84B02080000674010B5144B1B788BB9134C144A1449204677
:40320000FEF7C2FF134A14492046FFF7CBF813491348FEF7D9F901220A4B1A70104BB3F90030002B08DB590903F01F03012202FA03F30C4A42F82130034A136843F000438F
:40324000136010BD614B020800006740C84B02087C460810006A1800A0860100DD3108103442081000E100E080F0004002E000BF81F0004142001FBF5FEA410392EA030F5E
:403280007FEA226C7FEA236C6AD04FEA1262D2EB1363C1BFD218414048404140B8BF5B42192B88BF704710F0004F40F4000020F07F4018BF404211F0004F41F4000121F079
:4032C0007F4118BF494292EA030F3FD0A2F1010241FA03FC10EB0C00C3F1200301FA03F100F0004302D5494260EB4000B0F5000F13D3B0F1807F06D340084FEA310102F199
:403300000102FE2A51D2B1F1004F40EBC25008BF20F0010040EA03007047490040EB000010F4000FA2F10102EDD1B0FA80FCACF1080CB2EB0C0200FA0CF0AABF00EBC2509C
:4033400052421843BCBFD0401843704792F0000F81F4000106BF80F400000132013BB5E74FEA41037FEA226C18BF7FEA236C21D092EA030F04D092F0000F08BF0846704783
:4033800090EA010F1CBF0020704712F07F4F04D1400028BF40F00040704712F100723CBF00F50000704700F0004343F0FE4040F4000070477FEA226216BF08467FEA236334
:4033C0000146420206BF5FEA412390EA010F40F4800070474FF0000304E000BF10F0004348BF40425FEA000C08BF704743F0964301464FF000001CE050EA010208BF70470E
:403400004FF000030AE000BF50EA010208BF704711F0004302D5404261EB41015FEA010C02BF84460146002043F0B64308BFA3F18053A3F50003BCFA8CF2083AA3EBC25365
:4034400010DB01FA02FC634400FA02FCC2F12002BCF1004F20FA02F243EB020008BF20F00100704702F1200201FA02FCC2F1200250EA4C0021FA02F243EB020008BF20EAB2
:40348000DC7070477BB972B90029BEBF00204FF0004106E008BF00281CBF6FF000414FF0FF3000F0B1B9ADF1080C6DE904CE002909DB002B1ADB00F035F8DDF804E0DDE9A9
:4034C000022304B07047404261EB4101002B1BDB00F028F8DDF804E0DDE9022304B0404261EB4101524263EB43037047524263EB430300F017F8DDF804E0DDE9022304B035
:40350000404261EB41017047524263EB430300F009F8DDF804E0DDE9022304B0524263EB430370472DE9F0478C460E460446089D002B50D18A4217466CD9B2FA82FEBEF17D
:40354000000F0BD0CEF1200420FA04F401FA0EF644EA060C02FA0EF700FA0EF44FEA1749220CBCFBF9F01FFA87F809FB10C642EA064600FB08F3B34209D9F61900F1FF32E1
:4035800080F02281B34240F21F8102383E44F61AA2B2B6FBF9F309FB136642EA064403FB08F8A04509D9E41903F1FF3280F00A81A04540F20781023B3C44C8EB040443EA5B
:4035C00000400021002D62D024FA0EF400232C606B60BDE8F0878B4207D9002D55D0002185E841000846BDE8F087B3FA83F1002940F09080B34202D3824200F2F880841AFD
:4036000066EB03060120B446002D40D085E81010BDE8F08712B90127B7FBF2F7B7FA87FEBEF1000F35D1F31B4FEA17481FFA87FC0121B3FBF8F0220C08FB103642EA0646BE
:403640000CFB00F3B34207D9F61900F1FF3202D2B34200F2CE801046F61AA2B2B6FBF8F308FB136642EA06440CFB03FCA44507D9E41903F1FF3202D2A44500F2B5801346CB
:40368000CCEB040443EA00409CE729462846BDE8F087CEF1200106FA0EF307FA0EF720FA01F94FEA1748CE4049EA0309B6FBF8FA4FEA194408FB1A661FFA87FC44EA0643B3
:4036C0000AFB0CF29A4200FA0EF40AD9DB190AF1FF3180F087809A4240F28480AAF1020A3B449B1A1FFA89F9B3FBF8F108FB113349EA034301FB0CF69E4207D9DB1901F1F3
:40370000FF326BD29E4269D902393B449B1B41EA0A418EE7C1F1200E22FA0EF48B40234320FA0EF706FA01F44FEA134C26FA0EF63C43B6FBFCF9270C0CFB19661FFA83F82D
:4037400047EA064609FB08F7B74202FA01F200FA01FA08D9F61809F1FF3041D2B7423FD9A9F102091E44F61BA0B2B6FBFCF40CFB146640EA064704FB08F8B84507D9FF18BA
:4037800004F1FF3028D2B84526D9023C1F4444EA0940C8EB0707A0FB02894F4544464E4614D329D065B3BAEB040367EB060707FA0EFECB40CF404EEA030385E888000021C0
:4037C000BDE8F0871346F8E61046E0E6B8EB020469EB03060138E5E70446D8E7114695E78146C0E78A467CE7023B3C4448E708460AE702383E442FE7C245E7D33E46D1E7D8
:403800002946BDE8F08700BF704700BF02440346934202D003F8011BFAE770470EB400B59CB04FF402711DABADF81410029006906FF000410A48049107914FF6FF7153F892
:40384000042BADF816100068019302A900F076F8029B00221A701CB05DF804EB03B070470C43020810B5034642B111F8014B03F8014B013A002CF7D11A4400E010BD934281
:4038800002D003F8014BFAE710BD2DE9F0478E689E4282460C46914698463ED88A8912F4906F3AD0256809696F1A6569022305EB450595FBF3F57B1C43449D4238BF1D4693
:4038C00053050FD5294600F08FFB064698B13A46216900F015FBA38923F4906343F08003A38113E02A4600F0DDFB064670B92169504600F02BFB0C23CAF80030A38943F09E
:403900004003A3814FF0FF30BDE8F087266165613E44ED1B2660A5604646464528BF464632464946206800F0F6FAA3689B1BA36023681E4426600020BDE8F0872DE9F04F73
:403940009DB0804603938B891C060D4616460DD50B695BB9402100F047FB2860286118B90C23C8F80030CDE040236B610023099320238DF82930DFF89CB130238DF82A30A9
:4039800037463C4614F8013B1BB9B7EB060910D003E0252BF9D02746F3E74B46324629464046FFF772FF013000F0A780099B4B4409933B78002B00F0A08000234FF0FF321B
:4039C00004930793059206938DF853301A930126052221784E4800F043FA671C049B38B14B4A801A06FA00F0184304903C46EFE7D90644BF20228DF853201A0744BF2B2209
:403A00008DF8532022782A2A03D0079A00210A200BE0039A111D12680391002A10DA524243F00200079204900BE0274601343B78303B092B03D800FB02320121F5E701B17A
:403A400007923B782E2B1ED17B782A2B0AD1039B1A1D1B680392002BB8BF4FF0FF330237059310E000230593781C19460A24074601303A78303A092A03D804FB0121012305
:403A8000F5E703B1059103223978224800F0E8F940B14023CBEB000003FA00F0049B18430490013739781C488DF8281006227E1C00F0D6F988B1194B33B9039B073323F04B
:403AC00007030833039314E003AB00932A46144B04A94046AFF3008007E003AB00932A460F4B04A9404600F093F8B0F1FF3F824603D0099B5344099342E7AB895B0601D40E
:403B0000099801E04FF0FF301DB0BDE8F08F00BF92460810984608109C460810000000008B3808102DE9F04791461F460A698B68DDF820809342B8BF1346C9F8003091F8A7
:403B4000432006460C4612B10133C9F800302368990642BFD9F800300233C9F80030256815F0060510D104F1190A07E00123524639463046C04701301AD00135E368D9F868
:403B800000209B1A9D42F1DB94F843302268003318BF012392060FD5E1185A1C302081F84300224494F8451082F84310023303E04FF0FF30BDE8F08704F1430239463046F2
:403BC000C0470130F4D02268D9F80050E36802F00602042A08BF5D1B2269A3680CBF25EAE57500259342C4BF9B1AED184FF000091A344D4509D00123224639463046C047E2
:403C00000130D5D009F10109F3E70020BDE8F0872DE9F04317460A7E85B06E2A984606460C460C9B01F1430E00F0AE8011D8632A22D009D8002A00F0BB80582A40F0CA807B
:403C400081F84520834955E0642A1ED0692A1CD0C0E0732A00F0B08009D86F2A2ED0702A40F0B8800A6842F020020A603EE0752A24D0782A3AD0ADE01A6801F14205111D90
:403C80001960136884F84230A8E021681A6811F0800F02D0111D196008E011F0400F02F10401196002D0B2F9003000E01368002B3CDA2D225B4284F8432037E021681A68A7
:403CC00011F0800F02D0111D196007E011F0400F02F10401196001D0138800E01368227E5C496F2A14BF0A2208221BE078225A4984F845202268186812F0800F00F1040597
:403D00001D6003D1550601D5038800E00368D00744BF42F0200222601BB9226822F0200222601022002084F8430001E049490A226568A560002D08DB206820F004002060B9
:403D40002BB9002D7DD175460CE0002B79D07546B3FBF2F002FB1033CB5C05F8013D03460028F5D1082A0BD12368DA0708D5236962689A42DEBF302305F8013C05F1FF35C8
:403D8000C5EB0E0323612EE008681A68496910F0800F03D0101D1860136808E010F0400F02F104001860136801D0198000E0196000232361754616E01A68111D19601568A8
:403DC00062680021284600F04BF808B1401B6060636804E004F1420584F8422001232361002384F84330CDF800803B4603AA21463046FFF797FE013002D14FF0FF3026E08D
:403E000023692A4639463046C0470130F5D023689B0710D5002504F1190907E001234A4639463046C0470130E7D00135E368039A9B1A9D42F2DBE068039B9842B8BF1846B3
:403E400005E00B7884F8423004F142058AE705B0BDE8F083A3460810B44608100000000001F0FF01102A2BDB10F0070F08D010F8013B013A8B422DD010F0070F42B3F6D125
:403E8000F0B441EA012141EA014122F007047FF000070023F0E80256083C85EA010586EA010685FA47F5A3FA87F586FA47F6A5FA87F68EB9EED1F0BC01F0FF0102F0070243
:403EC00032B110F8013B013A83EA010313B1F8D10020704701387047002D06BF35460338073815F0010F07D1013015F4807F02BF013015F4C03F0130F0BC0138704700BF08
:403F000010B5431E0A44914204D011F8014B03F8014FF8E710BD884210B501EB020301D8421E0BE09842FBD28118D21AD34204D013F8014D01F8014DF8E710BD994204D066
:403F400011F8014B02F8014FF8E710BD38B50546002946D051F8043C0C1F002BB8BFE41800F0D6F81F4A1368114613B96360146032E0A3420ED92268A018834204BF186809
:403F80005B68636004BF121822600C6024E0A24203D813465A68002AF9D118681918A1420BD12168014458188242196014D1106852685A60014419600EE002D90C232B60D1
:403FC0000AE021686018824204BF10685268626004BF091821605C602846BDE8384000F098B838BD684B020870B5CD1C25F0030508350C2D38BF0C25002D064601DBA942B4
:4040000002D90C23336046E000F082F8234B1C681A462146A1B10B685B1B0ED40B2B03D90B60CC18CD501EE08C420DBF63684B686360136018BF0C4615E00C464968E9E7C2
:40404000174C23681BB9304600F052F820602946304600F04DF8431C18D0C41C24F00304A0420DD12560304600F053F804F10B00231D20F00700C31A0ED05A42E25070BDEF
:40408000211A304600F034F80130EBD10C233360304600F03EF8002070BD00BF684B0208644B0208F8B5074615460E4621B91146BDE8F840FFF798BF1AB9FFF747FF2846E5
:4040C000F8BD00F027F885420ED929463846FFF78BFF044650B131462A46FFF711FF31463846FFF733FF01E03046F8BD2046F8BD38B5064C002305460846236000F014F8EB
:40410000431C02D1236803B12B6038BD144C02087047704751F8040C0028BEBF091851F8043CC01804387047044A05491368002B08BF0B4618441060184670476C4B020847
:40414000184C0208F8B500BFF8BC08BC9E467047F8B500BFF8BC08BC9E4670470000003FCDCC4C3D0AD7A33B6F12033A17B75138ACC5A736BD37063548656C6C6F0D0A0016
:4041800044657669636520466F756E6420210D0A0000000053656E736F72204944203D2030782578200D0A004C6F616420706172616D207375636365737320210D0A0000F9
:4041C0007374617465203A202564200920256420092025640D0A000074656D7065726174757265203A202573200900007072657373757265203A20257350610D0A000000A4
:404200000300000001000000010000000000000005036000040000000100000000000000010000000604600008000000C84A0208E10B08102F000000070000002E00000015
:404240000700000047656E6572617465645F536F757263655C50536F43365C70646C5C647269766572732F7065726970686572616C2F6970632F63795F6970635F647276E3
:404280002E68000047656E6572617465645F536F757263655C50536F43365C70646C5C647269766572735C7065726970686572616C5C6970635C63795F6970635F6472768D
:4042C0002E68000047656E6572617465645F536F757263655C50536F43365C70646C5C647269766572735C7065726970686572616C5C6970635C63795F6970635F6472764D
:404300002E63000047656E6572617465645F536F757263655C50536F43365C70646C5C647269766572735C7065726970686572616C5C6970635C63795F6970635F70697014
:40434000652E630047656E6572617465645F536F757263655C50536F43365C70646C5C647269766572735C7065726970686572616C5C737973696E745C63795F737973691D
:404380006E742E63000000000000204000002440000000400000000000002340000030400000314000009F40000022400000104002020202020202020210101D80001700CB
:4043C0007500FF030602063604102000000000007FC0000000040000000000000019324B647D00804000080B100000000000FF012002001F00800004FF0810180010001419
:404400000018001C4044484C50000000081000000800000004000000041000000012000004210000002100000016000040114002C41300138013A013200000001C0000003B
:404440000000214000002540000001400000344000002440000031400000324000001F410000234000001140010101010101010101101010800019005500F0000501053B09
:4044800004101C01010000000FC000000004000001010101011D3A57789600082000101208000000001F00000010000F002000023F06080E00080009000A000B24282C305B
:4044C00034000000100000009000000088000000080000008000000004F0000000F00000400200002005A000D00100018001A001200000001000000047656E65726174659E
:40450000645F536F757263655C50536F43365C70646C5C647269766572735C7065726970686572616C5C7363625C63795F7363625F636F6D6D6F6E2E6800000047656E6581
:4045400072617465645F536F757263655C50536F43365C70646C5C647269766572735C7065726970686572616C5C7363625C63795F7363625F6932632E63000047656E6525
:4045800072617465645F536F757263655C50536F43365C70646C5C647269766572735C7065726970686572616C5C7363625C63795F7363625F6932632E68000047656E65E0
:4045C00072617465645F536F757263655C50536F43365C70646C5C647269766572735C7065726970686572616C5C7363625C63795F7363625F756172742E680047656E65E2
:4046000072617465645F536F757263655C50536F43365C70646C5C647269766572735C7065726970686572616C5C7363625C63795F7363625F756172742E63000000000025
:404640000C0000000800000000020000000000000000000000000000000000000000000000000000000000000B000000000000000000000000000000000000000201010015
:40468000000000000000000000000000000000004300232D302B2000686C4C0065666745464700303132333435363738394142434445460030313233343536373839616256
:4046C00063646566000000000000000058EEFF7F0100000000000810004002088C020000F44608108C4202082C0600004C490208CC0200000048E80100127A0000093D00A7
:4047000000127A0000127A0008000000401F00000000A00F00000000000000000000000000000000000000000000000000000000000000009046081000000000000000005D
:4047400000000000000000000000000000000000000000000000000000000000000000000000000000000000000000000000000000000000AC420208B10208108D020810CF
:404780000000000080B2C10050B3164B1B681A6AB3F8B030C3EBC303D358002BF5DA3E22114B1A6041F61E7204331A60A3F584730622C3F8182521F07F41C3F81C15D3F892
:4047C0001C35084B1A68116AB2F8B030C3EBC3030B4400225A60054BD3F81C35002BFADA704700BF8C4B02080401264000002640F8B5274B1B6893F83130052B04D840F290
:40480000C311244800F084FA214F3A68166AB2F8B03003EB83031E4452684FF26003D458A4B200F04DFA05463B681968D3F890208A58013C032C27D8032A0CD1164A127896
:4048400012F0FF0F07D10822B2601968D3F890208A58032AF9D01968D3F884208B588858C0F307221B0E581C02FB00000B4B03FB00F00B4B1B680B4AA2FB03239B09B0FB93
:40488000F3F08230FFF77EFF284600F021FAF8BD8C4B0208444208100B00001640420F0090420208D34D62104378FF2B23D110B500F006FA0446104B1B6893F83130042B52
:4048C00004D840F2C3110D4800F022FA0A4B1A68136AB2F8B02003EB8203DB685A68136843F001031360136813F0010FFBD1204600F0EEF910BD70478C4B02084442081070
:404900002DE9F04707468846554B1B6893F83130012B04D840F2C311524800F0F9F9504B1B681C6AB3F8B0201444D3F8B420161993F85030002B79D04B4B1B7813F0FF0F78
:4049400002D04FF0000901E04FF00109B9F1000F38D0434B1B6893F83130052B04D840F2C311404800F0D4F93D4B1A68116AB2F8B03003EB83030B44D2F8B420D358002B18
:4049800022DB002000F094F9384B98421ED00023374A12690121184600F082F918B1354D17E0013500E00025002000F081F92F4B984202D0304B9D42F3D92F4B9D4207D97C
:4049C0002C4D06E0002504E02A4D02E0294D00E00025002D41D100F073F98246274BD3F81C35002B10DA224A0121204600F088F960B94046FFF7C6FE57B13368002BFCDB12
:404A000000F06EF9054604E01A4D02E0194D00E01B4DB9F1000F05D00121002000F068F90028F9D1504600F053F916E000F048F980460F4A0121204600F062F938B947B112
:404A40003368002BFCDB00F04BF9054602E0094D00E00B4D404600F03BF92846BDE8F0878C4B0208444208100B00001601018800E84A020805005200EF4902000000264019
:404A800001005000F0B47F4B1A6855684FF0B0535B7813F0FF0F04D04FF0B0535B78DBB200E02123212B55D1116AB2F8B030C3EBC303CC18CB58002BF6DAE36843F00103C9
:404AC000E360146AB2F8B030C3EBC3031C44E36813F0020F2DD0E3689EB21368D2F884105958090A090401F47F01D2F88870DB591B0A41EA03633343E3601168D2F8842035
:404B00008B5823F47F4343F410638B505D4A13681C68D3F88810635823F47F4343F41063635013681A68D3F884105158D3F88830D358544B1A68116AB2F8B030C3EBC303ED
:404B40000B4400215960116AB2F8B030C3EBC3030B445B684B4B19680C68D1F894301C44494A136943F004031361012801D030BF07E020BF454B1B7803B120BF0122434B36
:404B80001A70236803F00303022BE9D00A6AB1F8B030C3EBC303D018D358002BF6DA4FF0B0535B7813F0FF0F04D04FF0B0535B78DBB200E02123212B30D1C36813F0020F36
:404BC0001FD00C68D1F88410635823F47F42C3681B0C1B0203F47F4313436350294B19680C68D1F88800235823F47F420D6AB1F8B030C3EBC3032B44DB681B0E42EA032383
:404C00002350204B1A68136AB2F8B020C2EBC2021344DA6822F00102DA6026E0D5F80C311BBB1B490E681B4BD3F818451A4A106841F61E770F600621C3F818153E21116080
:404C40004422C3F81C25134BD3F81C35002BFADA4FF0AA33C5F80C310D4B1E60A3F58473C3F8184503F582731860064B1A68116AB2F8B030C3EBC3030B4400225A60F0BC3E
:404C8000704700BF8C4B020800ED00E0104B02080801264000002640040126400000000001B40248844601BC604700BFA513081001B40248844601BC604700BFD111081089
:404CC00001B40248844601BC604700BF2B17081001B40248844601BC604700BF3317081001B40248844601BC604700BF9D0E081001B40248844601BC604700BF4911081013
:404D000001B40248844601BC604700BFC50F081001B40248844601BC604700BF5516081000000000000000000000000000000000000000000000000000000000000000002C
:404D40000000000000000000000000000000000000000000000000000000000000000000000000000000000000000000000000000000000000000000000000000000000033
:404D800000000000000000000000000000000000000000000000000000000000000000000000000000000000000000000000000000000000000000000000000000000000F3
:404DC00000000000000000000000000000000000000000000000000000000000000000000000000000000000000000000000000000000000000000000000000000000000B3
:0200000490303A
:02000000FA23E1
:0200000490501A
:0C0000000005E2F021002101E30D1B23AC
:00000001FF